:100000004DC071C070C06FC06EC06DC06CC06BC0A1
:100010006AC069C068C067C066C065C028C363C0E5
:1000200062C061C060C06DC300002D0024002700C5
:100030002A0000002E00250028002B0000000000F0
:1000400000000000000304000000000000000000A9
:10005000000000000000000000002C00230026002B
:10006000290004040404040404040202020202023B
:10007000020203030303030303010101010301025D
:1000800004081020408001020408102040808001F4
:1000900002040810200102040840C20611241FBEF9
:1000A000CFEFD2E0DEBFCDBF11E0A0E0B1E0E4E0F1
:1000B000FEE002C005900D92AA32B107D9F721E007
:1000C000AAE2B1E001C01D92AC3FB207E1F710E037
:1000D000CEE4D0E003C02197FE018CD6CD34D10709
:1000E000D1F72DD48DC68CCFE091CE01F091CF0108
:1000F000309729F01092C5011092C4010994089517
:10010000CF93DF93AC01E091CC01F091CD0130971A
:10011000F1F09091C7018091C6019817C0F090E06E
:10012000292F30E02617370754F4D901A456BE4FC3
:10013000240F351FE90128812C939F5FF1CF109286
:10014000C7016093C601CB01DF91CF910994DF9184
:10015000CF9108953FB7F8948091BD019091BE0171
:10016000A091BF01B091C00126B5A89B05C02F3F4B
:1001700019F00196A11DB11D3FBFBA2FA92F982FCD
:100180008827BC01CD01620F711D811D911D43E0C7
:10019000660F771F881F991F4A95D1F70895089514
:1001A000E091C7018091C601E81730F4F0E0E45611
:1001B000FE4F808190E008958FEF9FEF089590911A
:1001C000C7018091C6012FEF3FEF981748F4E92F40
:1001D000F0E0E456FE4F208130E09F5F9093C7012E
:1001E000C90108958091C6019091C701891B990B9F
:1001F000089585ED8093BC008091BC0084FDFCCF08
:100200001092C301089520915501260F3327331F03
:1002100021323105ECF42091C301FC0190E080E033
:10022000243069F082E00895A09155012191AC013C
:100230004B5C5E4FA40FB52FB11D2C930196861712
:1002400098F380915501680F6093550180E00895FF
:1002500081E00895CF93DF93CB01EA01642FD3DFD0
:10026000CE01DF91CF910895CF93DF931F92CDB749
:10027000DEB7698361E0CE010196C5DF81E090E0E1
:100280000F90DF91CF910895E0913401E051E23772
:1002900008F03CC1F0E0E25BFE4F09943AC136C180
:1002A00035C134C133C132C131C130C12FC12EC1BA
:1002B0002DC12CC12BC12AC129C128C127C166C0AB
:1002C00071C075C079C022C121C120C11FC179C0D0
:1002D0007EC01CC11BC11AC119C118C17CC080C01D
:1002E0008BC014C113C112C111C110C10FC10EC105
:1002F0000DC10CC10BC10AC109C108C18FC006C123
:1003000005C104C103C102C101C100C1FFC0FEC0DB
:10031000FDC0FCC0FBC0FAC0F9C0F8C084C08DC0ED
:100320002FC090C092C093C090C094C08EC0EEC049
:10033000EDC0ECC0EBC0EAC0E9C0E8C0E7C08DC0CA
:1003400091C095C099C0E2C0E1C0E0C0DFC0DEC08E
:10035000DDC0DCC0DBC0DAC0D9C0D8C092C096C056
:10036000A2C0A4C0B0C0B2C070C06FC0B2C0B6C09E
:10037000BEC0C0C0CBC0CAC0C9C0C8C0C4C065C0B0
:100380008CED95E0682F80ED91E06ECF8091E601D5
:100390009091E70197FD0F9654E0959587955A95B2
:1003A000E1F7F0CF8091E8019091E901F3CF8091DE
:1003B000EA019091EB01EECF8091EC019091ED017B
:1003C000E9CF8091E2019091E3019927DBCF209161
:1003D000E301822FD7CF8091DC019091DD01D2CF54
:1003E0008091EE019091EF01019621E030E0309391
:1003F000E5012093E401C6CFE9E0F1E021E031E03E
:1004000090E080E0880F991F529142914130510550
:1004100009F401962E173F07A9F7B4CF8091E401A4
:100420009091E501AFCF8091320190913301019617
:100430009093330180933201A5CF8091F001909188
:10044000F101A0CF81EE90E09DCF80E09BCF82EEC6
:1004500090E098CF83EE90E095CF80912A01909123
:100460002B0190CF80912C0190912D018BCF809109
:100470002E0190912F0186CF809130019091310112
:1004800081CF8091F6019091F7019FCF8091F60185
:100490009091F701A091F801B091F901892F9A2F5D
:1004A000AB2FBB2792CF8091F8016CCF8091F601E2
:1004B0009091F701A091F801B091F9018B2F992744
:1004C000AA27BB275FCF8CED90E05CCF85E090E062
:1004D00059CF8091F2019091F30177CF8091F20191
:1004E0009091F301A091F401B091F501D7CF8091E3
:1004F000F40148CF8091F2019091F301A091F401B1
:10050000B091F501DBCF8EEE90E03CCF88EE90E02D
:1005100039CF8DE090E036CFCF93DF9381309105D6
:1005200061F49091C6018091C701981741F180ED67
:1005300091E045DE80933401F4CF029701F580ED20
:1005400091E03DDEEC0190932B0180932A0180ED38
:1005500091E035DE90932D0180932C01C0933401FE
:10056000A197C430D10558F4CC0FDD1FCA51DE4F1E
:1005700034E0880F991F3A95E1F799838883DF91DA
:10058000CF91089587FF04C08F77883058F58F5E2C
:1005900090E0FC01E45CFF4F3491FC01E258FF4F16
:1005A0002491FC01EE59FF4FE491EE23D1F0332367
:1005B00039F03330C9F4809180008F7780938000C8
:1005C000F0E0EE0FFF1FEE5CFF4FA591B4918FB7E7
:1005D000611110C0F8949C91E22FE095E923EC930F
:1005E0008FBF08958FEFD4CF343051F780918000C2
:1005F0008F7DE4CFF894EC91E22BF1CFCF93DF9392
:1006000087FF04C08F77883048F58F5E90E0FC014B
:10061000E258FF4F24918E599F4FFC01849188230B
:10062000D1F090E0880F991FFC01E85DFF4FA59184
:10063000B491FC01EE5CFF4FC591D491611110C0E3
:100640009FB7F8948C91E22FE0958E238C932881AC
:10065000E223E8839FBFDF91CF9108958FEFD6CF3C
:100660008FB7F894EC91E22BEC938FBFF4CF1F92ED
:100670000F920FB60F9211242F933F938F939F9356
:10068000AF93BF938091DE019091DF01A091E001D3
:10069000B091E1013091BC0126E0230F2D3768F1C4
:1006A00029E8230F0396A11DB11D2093BC0180935F
:1006B000DE019093DF01A093E001B093E10180910E
:1006C000BD019091BE01A091BF01B091C001019602
:1006D000A11DB11D8093BD019093BE01A093BF01E8
:1006E000B093C001BF91AF919F918F913F912F9196
:1006F0000F900FBE0F901F9018950296A11DB11D6F
:10070000D4CF1F920F920FB60F9211242F933F93C5
:100710004F935F936F937F938F939F93AF93BF9309
:10072000EF93FF938091B900887F803609F449C028
:10073000E8F5883209F4A6C018F5803109F49AC0AA
:10074000B8F4882309F4F8C0883009F493C0FF9105
:10075000EF91BF91AF919F918F917F916F915F9139
:100760004F913F912F910F900FBE0F901F901895B2
:10077000883109F487C0803251F78093780114C022
:10078000803409F49CC040F48033B9F38833F9F61F
:100790008093780185ECAFC0803509F484C088353A
:1007A00009F495C0883499F624DDD1CF883909F44D
:1007B0008CC038F5883729F050F4883611F080372E
:1007C00031F683E08093C3011092770157C08838D7
:1007D00009F47BC0803919F0803809F0B8CF8091D6
:1007E0007701803208F071C0E091770181E08E0FCF
:1007F000809377018091BB00F0E0E95AFE4F80833F
:100800003DC0803B39F0E0F4803A09F479C0883A81
:1008100009F09DCF84E08093C3011092560110929D
:100820005501E091CA01F091CB01099580915501E4
:1008300081110FC081E0809355011092350109C0EC
:10084000803C09F4A7CF883C09F4A4CF883B09F089
:100850007ECFE091560181E08E0F80935601F0E04B
:10086000EB5CFE4F80818093BB009091560180919C
:10087000550129C080919B018093BB0085EC80933A
:10088000BC0065CF90919A0180919901981758F515
:10089000E0919A0181E08E0F80939A01F0E0E75891
:1008A000FE4F8081E9CFE0919A0181E08E0F809325
:1008B0009A018091BB00F0E0E758FE4F8083909151
:1008C0009A01809199019817C8F285E8D8CFE091F4
:1008D0009A0181E08E0F80939A018091BB00F0E035
:1008E000E758FE4F80838091C20181115DCF81E086
:1008F0008093C10184EA8093BC001092C30127CF8A
:1009000085EC8093BC001092C30180917701803206
:1009100030F4E0917701F0E0E95AFE4F10826091E7
:10092000770170E0E091C801F091C90187E591E09D
:100930000995109277010BCF1092780135CF83E0A3
:1009400085BD789490916E00916090936E00C1E0A7
:10095000C09380008093810096E890937A0014BE43
:10096000A895F8940FB6F894A895909160009861B6
:1009700090936000109260000FBE90E89093610029
:10098000809361007894C093000160E080E036DEDF
:1009900060E081E033DE60E082E030DE60E083E052
:1009A0002DDE61E084E12ADE61E087E127DE60E0A0
:1009B00087E1E8DD1092EF011092EE0161E088E13D
:1009C0001DDE61E088E1DEDD61E089E117DE61E0E6
:1009D00089E1D8DD61E08AE111DE61E08AE1D2DD02
:1009E0002FB7F8948091DE019091DF01A091E00192
:1009F000B091E1012FBF8093F6019093F701A0938E
:100A0000F801B093F90184529A4FAF4FBF4F8093D2
:100A1000F2019093F301A093F401B093F50188E201
:100A20008093BA0084E790E09093CB018093CA0151
:100A300080E890E09093C9018093C8011092C701AB
:100A40001092C6011092C5011092C4011092C30108
:100A5000C093C2011092C10161E085E193DD61E0C4
:100A600086E190DD8091B9008E7F8093B9008091FE
:100A7000B9008D7F8093B90080E28093B80085E44F
:100A80008093BC008CE892E09093CD018093CC01E0
:100A900084E491E09093CF018093CE0188E19EE0C1
:100AA0000FB6F894A895809360000FBE90936000F5
:100AB00072E0E72EF12CCC24C394D12C04E010E09A
:100AC0008091FA019091FB010196B7016CD180935E
:100AD000FA019093FB01682F84E154DD1092DD014F
:100AE0001092DC01A9E1B1E081E091E0C6EED1E035
:100AF000AE0130E020E06C91129667FF05C06F7781
:100B0000683008F0B9C06F5E70E0FB01E258FF4F3B
:100B1000B490FB01EE59FF4FE491EE2309F4AEC00F
:100B2000F0E0EE0FFF1FE85AFF4F65917491FB0153
:100B30006081B62209F4A2C0FC01D182C0822F5F7D
:100B40003F4F02964E5F5F4FF1E0A132BF0799F62B
:100B50003093DD012093DC012FB7F8948091DE0102
:100B60009091DF01A091E001B091E1012FBF80934E
:100B7000F6019093F701A093F801B093F901409129
:100B8000F2015091F3016091F4017091F501481761
:100B900059076A077B0708F050C0E091EE01F09119
:100BA000EF0130E020E02F5F3F4FCF01820F931F16
:100BB000B801F9D05C01880F991FDC01AF5FBE4F0F
:100BC0004D915C91452B09F460C08A519E4FDC0128
:100BD0008D919C91892B09F058C0F894C091EE0139
:100BE000D091EF01CA15DB0579F0F501EE0FFF1F7B
:100BF000EF5DFE4F60E08081C5DCCC0FDD1FCF5D77
:100C0000DE4F61E08881BEDC7894B092EF01A09263
:100C1000EE018091F6019091F701A091F801B09159
:100C2000F90184529A4FAF4FBF4F8093F2019093D6
:100C3000F301A093F401B093F5018091F00190913C
:100C4000F10101969093F1018093F00183DAEB01B9
:100C500089E1882E912CA12CB12C7CDA6C1B7D0BA8
:100C6000683E734008F487C081149104A104B10464
:100C700009F079C0A89524CF6FEF46CFFC0111820F
:100C80001082FA01118210825CCF2430310509F004
:100C90008ACF809100018295880F880F80748260CE
:100CA00080937C0080917A00806480937A008091A8
:100CB0007A0086FDFCCF9091780080917900892799
:100CC000982789279093E3018093E2018A3A91055E
:100CD000D4F18091E4019091E5010197E1F0C09198
:100CE000EE01D091EF0130E020E02F5F3F4FCE01C9
:100CF000820F931FB80157D05C01FC01EE0FFF1F5C
:100D0000EF5FFE4F80819181892B09F066CF2430FF
:100D1000310559F762CF1092E5011092E40148E8DD
:100D200053E190E080E0299139912417350734F49C
:100D30002D31BCE03B0714F0A9015C010196843021
:100D4000910589F74ACF30E020E090E080E04991BA
:100D500059912417350714F49A015C0101968430E7
:100D60009105A9F73ACFE1E08E1A9108A108B108E0
:100D7000C851DC4F72CF81149104A104B10409F071
:100D80006CCF78CFE0EDF1E01382128288EE93E031
:100D9000A0E0B0E084839583A683B7838DE091E0E3
:100DA00091838083089597FB072E16F4009406D054
:100DB00077FD08D00BD007FC05D03EF490958195C7
:100DC0009F4F0895709561957F4F0895AA1BBB1B97
:100DD00051E107C0AA1FBB1FA617B70710F0A61B3B
:100DE000B70B881F991F5A95A9F780959095BC015C
:100DF000CD010895EE0FFF1F0590F491E02D0994A9
:040E0000F894FFCF94
:100E04000101000000000000000000000034012A7D
:100E140001F200DF00D000CF000000010002000357
:0A0E2400001700180019001A000062
:00000001FF
