:100000004EC072C071C0C8C4C7C4C6C4C5C46CC029
:100010006BC06AC069C068C067C066C073C464C092
:1000200063C062C061C030C500002D0024002700FD
:100030002A0000000000000000000003040000008F
:1000400000000000000000000000000000000000B0
:100050002C0023002600290000002E002500280087
:100060002B00040404040404040402020202020239
:10007000020203030303030303010101010301025D
:1000800004081020408001020408102040808001F4
:10009000020408102001020408406206C90B112462
:1000A0001FBECFEFD2E0DEBFCDBF22E0A0E4B1E0C3
:1000B00001C01D92A739B207E1F711E0A0E0B1E05D
:1000C000EEE1F9E102C005900D92A034B107D9F735
:1000D00010E0CEE4D0E003C02197FE010EDCCD3469
:1000E000D107D1F756D60FCC8BCFE0912802F091F3
:1000F0002902309729F010921F0210921E020994D3
:100100000895CF93DF93AC01E0912602F09127028E
:100110003097F1F090912102809120029817C0F061
:1001200090E0292F30E02617370754F4D901AE5458
:10013000BE4F240F351FE90128812C939F5FF1CF1B
:100140001092210260932002CB01DF91CF9109949C
:10015000DF91CF910895CF92DF92EF92FF920F93AC
:100160001F93CF93DF936C01EB017B01E40EF51E2F
:1001700010E000E0CE15DF0561F06991D601ED9148
:10018000FC910190F081E02DC6010995080F191F1F
:10019000F1CFC801DF91CF911F910F91FF90EF90A8
:1001A000DF90CF9008953FB7F89480911702909117
:1001B0001802A0911902B0911A0226B5A89B05C099
:1001C0002F3F19F00196A11DB11D3FBFBA2FA92FD6
:1001D000982F8827BC01CD01620F711D811D911DD3
:1001E00043E0660F771F881F991F4A95D1F708953E
:1001F0002FB7F89460911302709114028091150248
:10020000909116022FBF089520912C0230912D025B
:100210002817390781F490912A0280912B029817B0
:1002200051F0E0912A02F0E0EE52FE4F8081082E5C
:10023000000C990B08958FEF9FEF089520912C02E9
:1002400030912D022817390739F48FB7F89410929E
:100250002B0210922A028FBF0895EF92FF920F9304
:100260001F93CF93DF93DC015C96ED90FC905D973C
:10027000E114F10479F481E090E013969C938E935D
:10028000129790E080E0DF91CF911F910F91FF9046
:10029000EF9008955196ED91FC91529750968C9164
:1002A0005097982F90950FB75E962C915E97122FCE
:1002B000127021FD6095F8942081112319F1282BEB
:1002C0002083E7012197F1F728E0462F50E03081A5
:1002D00060FF1AC0382B3083E7012197F1F7BA018C
:1002E00075956795215089F7112381F080818923C5
:1002F00080830FBF5C968D919C910197F1F781E00F
:1003000090E0C1CF2923DCCF3923E5CF9081892B21
:10031000EFCF20912C0230912D022817390769F474
:1003200080912B0220912A0290E0805C9F4F821BDB
:10033000910960E470E07CDA089590E080E008952F
:1003400020912C0230912D0228173907B9F4909191
:100350002A0280912B02981789F0E0912A02F0E09E
:10036000EE52FE4F808120912A0230E02F5F3F4FF6
:100370002F73332720932A0290E008958FEF9FEF89
:1003800008950895E091210280912002E81730F449
:10039000F0E0EE54FE4F808190E008958FEF9FEFE4
:1003A000089590912102809120022FEF3FEF98173E
:1003B00048F4E92FF0E0EE54FE4F208130E09F5FDB
:1003C00090932102C9010895809120029091210209
:1003D000891B990B089585ED8093BC008091BC002A
:1003E00084FDFCCF10921D02089520916B01260F11
:1003F0003327331F21323105ECF420911D02FC011B
:1004000090E080E0243069F082E00895A0916B01D3
:100410002191AC01455B5E4FA40FB52FB11D2C930C
:100420000196861798F380916B01680F60936B01BA
:1004300080E0089581E00895CF93DF93CB01EA0136
:10044000642FD3DFCE01DF91CF910895CF93DF9357
:100450001F92CDB7DEB7698361E0CE010196C5DF9B
:1004600081E090E00F90DF91CF910895CF92DF92DD
:10047000EF92FF9280914A0123EE30E0873571F1CF
:1004800008F095C0833309F409C108F047C02091F2
:100490004A0230914B02833209F198F420914602CE
:1004A000309147028132D1F02091480230914902C7
:1004B0008232A0F427E130E0803181F028EE30E094
:1004C0000DC02091300230913102803339F070F448
:1004D00020914C0230914D02843281F7622F8CE6DC
:1004E00092E0FF90EF90DF90CF90B0CF813309F48E
:1004F000C8C0823319F7E8E0F1E080E091E030E035
:1005000020E0220F331F529142914130510511F4E6
:100510002F5F3F4F8E179F07A1F7E0CF2CED35E0FF
:100520008235E1F298F52091440230914502803401
:10053000A9F208F5873311F68091360290913702BF
:100540002FEF30E0892B51F2C0903202D09033026D
:10055000E0903402F09035024BDEA7019601261B95
:10056000370B480B590BCA01B9012DE730E040E0C9
:1005700050E071D9B3CF803509F4A3C02091560261
:1005800030915702813509F4A9CF98CF843569F0AD
:1005900021EE30E0843508F4A1CF22EE30E085353D
:1005A00009F49CCF863509F089CF20E097CF8337B7
:1005B00009F4A5C070F520914401309145018336BE
:1005C00009F48CCF88F420914001309141018136AB
:1005D00009F484CF2091420130914301823608F022
:1005E0007DCF883511F36ACF803709F475C040F4A8
:1005F0002091460130914701843609F46FCF5ECFD8
:10060000813709F46FC020916A02823709F466CFFE
:1006100055CF209166028A3709F460CFC8F425E0EF
:1006200030E0853709F45ACF2CED30E0853708F4F7
:1006300055CF883709F470C0893709F03FCF209132
:10064000640230916502409166025091670252C087
:100650002EEE30E0803809F441CF60F48B3709F09A
:100660002DCF209164023091650240916602509135
:1006700067024DC0813809F498CF883809F495CFC6
:100680001DCF20915802309159022F5F3F4F81E0DA
:1006900090E0909345028093440220CFE6E5F2E09B
:1006A0008EE492E030E020E0220F331F529142911D
:1006B0004130510511F42F5F3F4F8E179F07A1F76F
:1006C0000DCF20914801309149012F5F3F4F30936A
:1006D00049012093480102CF2091680230916902BC
:1006E0003327FCCE209168023091690240916A0262
:1006F00050916B02232F342F452F5527F1CF209196
:1007000068023091690240916A0250916B02252F74
:10071000332744275527E2CE2091640230916502A9
:10072000DFCFCF93DF938130910561F49091200268
:10073000809121029817F1F18CE692E032DE8093ED
:100740004A01F4CF0297B1F58CE692E02ADEEC0183
:1007500090934101809340018CE692E022DE9093D9
:10076000430180934201C0934A01A197C430D1054F
:1007700008F5CC0FDD1FFE01EA5BFD4F91838083FE
:10078000C25BDD4F288139812130310599F4EEE4D7
:10079000F2E030E020E0419151914130510529F4DF
:1007A000D901AA5BBD4F8D939C932E5F3F4F28309C
:1007B000310589F7DF91CF91089587FF04C08F77C6
:1007C0008830D0F48F5E90E0FC01E258FF4F249116
:1007D000FC01EE59FF4FE491EE2381F0F0E0EE0FC3
:1007E000FF1FE25BFF4FA591B491EC91E22381E002
:1007F00090E031F480E008958FEFE5CF80E090E065
:10080000089587FF04C08F77883058F58F5E90E099
:10081000FC01EE5CFF4F3491FC01E258FF4F249144
:10082000FC01EE59FF4FE491EE23D1F0332339F070
:100830003330C9F4809180008F7780938000F0E09E
:10084000EE0FFF1FE85AFF4FA591B4918FB76111CA
:1008500010C0F8949C91E22FE095E923EC938FBFB0
:1008600008958FEFD4CF343051F7809180008F7D81
:10087000E4CFF894EC91E22BF1CFCF93DF9387FF95
:1008800004C08F77883048F58F5E90E0FC01E25815
:10089000FF4F24918E599F4FFC0184918823D1F002
:1008A00090E0880F991FFC01E85DFF4FA591B4917E
:1008B000FC01E85AFF4FC591D491611110C09FB758
:1008C000F8948C91E22FE0958E238C932881E2237B
:1008D000E8839FBFDF91CF9108958FEFD6CF8FB779
:1008E000F894EC91E22BEC938FBFF4CFFC010190D4
:1008F0000020E9F73197AF01481B590BBC0188E78D
:1009000092E029CC1F920F920FB60F9211242F93D1
:100910003F938F939F93AF93BF93809113029091D6
:100920001402A0911502B09116023091120226E035
:10093000230F2D3768F129E8230F0396A11DB11D60
:10094000209312028093130290931402A093150235
:10095000B09316028091170290911802A09119028B
:10096000B0911A020196A11DB11D809317029093B8
:100970001802A0931902B0931A02BF91AF919F91F0
:100980008F913F912F910F900FBE0F901F90189550
:100990000296A11DB11DD4CF1F920F920FB60F92D8
:1009A00011242F933F934F935F936F937F938F9374
:1009B0009F93AF93BF93EF93FF93E0912C02F0913D
:1009C0002D02309749F0A685B7858585968D91FFD4
:1009D00014C09C918923A1F4FF91EF91BF91AF9135
:1009E0009F918F917F916F915F914F913F912F9147
:1009F0000F900FBE0F901F9018959C91892361F75F
:100A0000A389B4899C918589809589238C93868953
:100A100097890197F1F7608D718DA685B78555850A
:100A200038E020E0CB010197F1F7822F90E0959517
:100A30008795282F4C91452309F02068315091F774
:100A4000868D81FD209580912B0290E001968F7319
:100A5000992730912A02381799F0A0912B02B0E023
:100A6000AE52BE4F2C9380932B02828D938D0197B3
:100A7000F1F7A389B4898C919589892B8C93ACCF9C
:100A8000868D8160868FF1CF1F920F920FB60F92E5
:100A900011242F933F934F935F936F937F938F9383
:100AA0009F93AF93BF93EF93FF938091B900887F9B
:100AB000803609F449C0E8F5883209F4A6C018F573
:100AC000803109F49AC0B8F4882309F4F8C088305A
:100AD00009F493C0FF91EF91BF91AF919F918F91D6
:100AE0007F916F915F914F913F912F910F900FBE2A
:100AF0000F901F901895883109F487C0803251F704
:100B000080938E0114C0803409F49CC040F480337B
:100B1000B9F38833F9F680938E0185ECAFC0803548
:100B200009F484C0883509F495C0883499F653DCFB
:100B3000D1CF883909F48CC038F5883729F050F4C2
:100B4000883611F0803731F683E080931D021092D1
:100B50008D0157C0883809F47BC0803919F080387E
:100B600009F0B8CF80918D01803208F071C0E0911A
:100B70008D0181E08E0F80938D018091BB00F0E0AC
:100B8000E359FE4F80833DC0803B39F0E0F4803A6A
:100B900009F479C0883A09F09DCF84E080931D0262
:100BA00010926C0110926B01E0912402F0912502E9
:100BB000099580916B0181110FC081E080936B01D9
:100BC00010924B0109C0803C09F4A7CF883C09F47E
:100BD000A4CF883B09F07ECFE0916C0181E08E0FBD
:100BE00080936C01F0E0E55BFE4F80818093BB0059
:100BF00090916C0180916B0129C08091B10180932B
:100C0000BB0085EC8093BC0065CF9091B0018091D2
:100C1000AF01981758F5E091B00181E08E0F8093F5
:100C2000B001F0E0E157FE4F8081E9CFE091B001E3
:100C300081E08E0F8093B0018091BB00F0E0E1571E
:100C4000FE4F80839091B0018091AF019817C8F258
:100C500085E8D8CFE091B00181E08E0F8093B0019C
:100C60008091BB00F0E0E157FE4F808380911C0231
:100C700081115DCF81E080931B0284EA8093BC00E8
:100C800010921D0227CF85EC8093BC0010921D02AC
:100C900080918D01803230F4E0918D01F0E0E359D4
:100CA000FE4F108260918D0170E0E0912202F09180
:100CB00023028DE691E0099510928D010BCF1092E1
:100CC0008E0135CF10926F0210926E0288EE93E083
:100CD000A0E0B0E08093700290937102A093720242
:100CE000B09373022DE131E030936D0220936C02DA
:100CF00010927B0210927A0280937C0290937D0284
:100D0000A0937E02B0937F028DE291E090937902EE
:100D10008093780210928F0210928E0210929102AC
:100D200010929002109293021092920210929502E9
:100D300010929402609196026E7F6D7F609396028E
:100D40006695617081E0682789E05BDD61E089E09C
:100D500094DD82E08093880285E290E090938A029D
:100D60008093890260E088E088DD8091960281FDB1
:100D700003C061E088E045DD88E08093840281E083
:100D80008093850283E290E09093870280938602AD
:100D90000895CF93DF93CDB7DEB7A3970FB6F8943E
:100DA000DEBF0FBECDBF83E085BD789490916E000D
:100DB000916090936E0011E0109380008093810009
:100DC00096E890937A0014BEA895F8940FB6F8941C
:100DD000A8959091600098619093600010926000D7
:100DE0000FBE90E890936100809361007894109218
:100DF000080161E084E141DD61E08FE03EDD61E01A
:100E000082E13BDD61E082E1FCDC60E084E035DD35
:100E100061E086E032DD60E086E0F3DC61E085E001
:100E20002CDD61E085E0EDDC60E087E026DD60E060
:100E300080E023DD60E081E020DD60E082E01DDD18
:100E400060E083E01ADD61E087E117DD60E087E1C3
:100E5000D8DC109259021092580261E088E10DDD51
:100E600061E088E1CEDC61E089E107DD61E089E1F4
:100E7000C8DC61E08AE101DD61E08AE1C2DCB8D969
:100E8000609368027093690280936A0290936B0288
:100E900064527A4F8F4F9F4F609364027093650244
:100EA000809366029093670288E28093BA0085E798
:100EB00090E0909325028093240281E890E0909343
:100EC000230280932202109221021092200210929B
:100ED0001F0210921E0210921D0210931C0210920B
:100EE0001B0261E085E18DDC61E086E18ADC8091B6
:100EF000B9008E7F8093B9008091B9008D7F809377
:100F0000B90080E28093B80085E48093BC0081E959
:100F100093E0909327028093260286E392E09093D9
:100F200029028093280288E19EE00FB6F894A895E4
:100F3000809360000FBE9093600060E082E161DC0E
:100F400060E088E09ADC61E089E097DC109293022F
:100F500010929202109291021092900210928F02BF
:100F600010928E0287E190E0909395028093940214
:100F7000809184028B3108F049C021E030E0309349
:100F80008F0220938E0225E130E03093910220936E
:100F9000900227E030E03093930220939202209158
:100FA000680094E0883038F091E0803120F092E0E1
:100FB000873108F098E0922B909368002DE630E09E
:100FC000883070F02BE630E0803150F02CE630E0D5
:100FD000873130F02AE630E08B3110F030E020E04D
:100FE00030938C0220938B02803108F0E0C0877030
:100FF00091E001C0990F8A95EAF7892F80938D02BD
:1010000080919402909195020197F1F7809192025C
:1010100090919302892B49F1E0912C02F0912D02DD
:1010200022E0E837F20709F1309739F0A389B48953
:101030009C918589809589238C93809196028E7FDF
:101040008093960210922B0210922A0288E792E077
:1010500090932D0280932C02E0918B02F0918C02F0
:10106000808190918D02892B8083EE24E394F12C72
:10107000AAE02A2E312C412C512CB4E06B2E712C7D
:1010800080912E0290912F02019668E070E0D0D3FB
:1010900090932F0280932E02009759F020913602F0
:1010A000309137022130310509F094C0029709F0E0
:1010B00091C061E084E1A5DB109231021092300210
:1010C00009E011E070E0A72E71E0B72EE6E4CE2E25
:1010D000E2E0DE2E4601D8018C910E5F1F4F6DDBE2
:1010E0008130910509F078C0F5019183808380916A
:1010F0003002909131020196909331028093300238
:10110000F2E0AF0EB11C22E0820E911C41E151E0F1
:101110004017510701F780913E0290913F02892BC1
:1011200061F184E04ADB019709F1809136029091E8
:101130003702892B09F057C0F0923702E09236024D
:1011400057D86C53764F8F4F9F4F609332027093F6
:101150003302809334029093350261E087E08DDBA7
:1011600060E087E04EDB60E085E04BDB80913E0293
:1011700090913F02019709F472C084E01EDB892B35
:1011800009F46DC035D84B015C01809268029092E1
:101190006902A0926A02B0926B0287E00EDB0197AF
:1011A00009F045C010923D0210923C0258C08031B7
:1011B00079F0282F30E0873140F42151310981E066
:1011C00001C0880F2A95EAF719CF27513109F7CFC7
:1011D00080E814CF60E06ECFD5011D921C92F4011F
:1011E000118210828DCF04D8009132021091330207
:1011F00020913402309135026017710782079307FE
:1012000008F4B4CF60E086E0FCDA10923F0210925E
:101210003E02109237021092360261E085E0F1DA68
:1012200061E087E0EEDA60E087E027DB9FCF809126
:101230003C0290913D02892B09F0A2C15AEF850E24
:10124000911CA11CB11C8092380290923902A0928C
:101250003A02B0923B02F0923D02E0923C02C8D7C3
:10126000609368027093690280936A0290936B02A4
:10127000209158023091590280906402909065024A
:10128000A0906602B090670286169706A806B90677
:1012900008F050C2109263021092620280914402E0
:1012A00090914502F0E0E0E0019709F083C11092CF
:1012B000450210924402F0E0E0E03196CF01820F47
:1012C000931FB301B5D28C01880F991FDC01A05088
:1012D000BF4F4D915C91452B41F08A5B9D4FDC01E6
:1012E0008D919C91892B09F4CDC1E430F10529F74A
:1012F00083E163DA019709F0CAC1109241021092AA
:101300004002809142029091430201968B309105F8
:101310000CF4FAC1EAE0F0E0F0934302E0934202F9
:101320008091420290914302853091050CF0F1C109
:101330008C0101501109880F991FFC01E250FF4FE9
:1013400081919191009709F09DC10F5F1F4F04306B
:101350001105B1F72FEF30E010E000E0D6014D911C
:101360005D916D01421753072CF4423C510514F076
:101370009A018C0101968430910581F781E01092E9
:101380004F0210924E02109251021092500210928F
:101390005302109252021092550210925402980178
:1013A000220F331FF901E25BFD4FF182E0828823B7
:1013B00021F12A5B3D4FD901ED91FC9121E030E014
:1013C000C901800F911FB30133D2880F991FDC012F
:1013D000AA5BBD4F4D915C914E1B5F0B4E5F5F4F03
:1013E0004530510528F4825B9D4FDC01ED92FC9263
:1013F0002F5F3F4F2430310519F7F8945EE4A52E96
:1014000052E0B52E450164E0C62ED12CF401819145
:1014100091914F01019759F4C6016EEF7FEFDED134
:101420008F5E9E4F60E0DC0118968C91EAD9B1E0A6
:10143000CB1AD10859F7D12CC12CF501819191918A
:101440005F01892B31F461E0F601EF5EFE4F808190
:10145000D8D9F2E0CF0ED11C28E0C216D10469F72A
:1014600078941093590200935802809168029091E9
:101470006902A0916A02B0916B0284529A4FAF4FF9
:10148000BF4F4091620250916302052E000C660B23
:10149000770B840F951FA61FB71F8093640290934C
:1014A0006502A0936602B093670289E391E01EDAB9
:1014B0000AE512E0D8018D909D908D01092C000C59
:1014C000AA08BB08B7FE0CC06DE288E792E0C5D65B
:1014D000B094A09490948094811C911CA11CB11C88
:1014E0008AA2792DC50119A26E01B1E2CB0ED11CE1
:1014F0006AA1A2019101AFD1822F6AE066D1AAA0B0
:10150000A81A8A2D8A300CF013C1805DD6018E9303
:101510006D012AA3732FCA01232B242B252B41F7FE
:10152000CD01E4D98DE391E0E1D9E2E6F2E0E01704
:10153000F10709F0BFCF80915602909157020196B2
:10154000909357028093560262E070E071D1682F49
:101550008FE057D928D68B0189E1882E912CA12CB8
:10156000B12C21D6601B710B683E734008F40AC190
:1015700081149104A104B10409F0FCC0A89580CDA8
:101580008091380290913902A0913A02B0913B02C9
:1015900088159905AA05BB0508F061CE61E086E0D3
:1015A00030D9F0923F02E0923E02FCCDE430F105EA
:1015B00009F481CE3196CF01820F931FB30138D148
:1015C0008C015C01AA0CBB1CBBA2AAA2D501A05035
:1015D000BF4F8D919C91892B49F3EAE5F2E030E011
:1015E00020E060E070E0CB0141915191453FA1E0E6
:1015F0005A0754F04A01550FAA08BB08680D791D17
:101600008A1D9B1D2F5F3F4F52E6A52E52E0B52E3F
:10161000AE16BF0649F721153105A1F1032E000CC6
:10162000440B550B3AD1EAA1FBA1E65AFD4F80814C
:101630009181092E000CAA0BBB0B59016A01A81A53
:10164000B90ACA0ADB0AC601B50123E030E040E06E
:1016500050E0D5D0603B2FEF720782079207A4F0CD
:10166000DC01CB01893C9105A105B10524F088EC92
:1016700090E0A0E0B0E06FE070E0B0D09093630243
:101680008093620280E07BCE80EB9FEFF4CF1092DC
:1016900043021092420280914002909141020196D1
:1016A0008B309105DCF1BAE0AB2EB12CB092410247
:1016B000A0924002809140029091410285309105B4
:1016C00094F58C0101501109880F991FFC01E2501B
:1016D000FF4F819191910097A9F60F5F1F4F043042
:1016E0001105B9F730E020E010E000E0F60141918B
:1016F00051916F012417350714F49A018C0101965A
:101700008430910599F73ACE909343028093420238
:1017100007CE2FEF30E090E080E01ECE90934102A4
:1017200080934002C7CF30E020E090E080E0DCCF43
:10173000895CECCE809108018295880F880F8074B7
:1017400080937C0080917A00806480937A008091FD
:101750007A0086FDFCCF9091780080917900220F6D
:10176000331FF901E65AFD4F89279827892791836E
:101770008083E1CEF1E08F1A9108A108B1080851E9
:101780001C4FEFCE81149104A104B10409F0E9CEFD
:10179000F5CE8DE291E0909379028093780280916A
:1017A0002C0290912D028857924071F4E0918B02A7
:1017B000F0918C02908180918D02809589238083A5
:1017C00010922D0210922C020895002480FD060E26
:1017D000660F11F08695D1F7802D089500245527C6
:1017E00004C0080E591F880F991F009729F076959D
:1017F0006795B8F37105B9F7802D952F0895EE27F9
:10180000FF27AA27BB2708C0A20FB31FE41FF51F9D
:10181000220F331F441F551F96958795779567951F
:1018200098F37040A9F7009799F7BD01CF0108958B
:1018300097FB072E16F4009406D077FD08D049D008
:1018400007FC05D03EF4909581959F4F08957095C3
:1018500061957F4F0895A1E21A2EAA1BBB1BFD01C3
:101860000DC0AA1FBB1FEE1FFF1FA217B307E4077F
:10187000F50720F0A21BB30BE40BF50B661F771FD7
:10188000881F991F1A9469F76095709580959095B7
:101890009B01AC01BD01CF010895052E97FB16F405
:1018A00000940FD057FD05D0D6DF07FC02D046F4D8
:1018B00008C050954095309521953F4F4F4F5F4F51
:1018C000089590958095709561957F4F8F4F9F4FAC
:1018D0000895AA1BBB1B51E107C0AA1FBB1FA61777
:1018E000B70710F0A61BB70B881F991F5A95A9F7C9
:1018F00080959095BC01CD010895EE0FFF1F0590D6
:10190000F491E02D099410E0CEE4D0E003C0FE0194
:0E191000F4DF2196CF34D107D1F7F894FFCF42
:10191E0001000000000000000100000100020003B1
:10192E00001700180019001A000000000026021C03
:10193E0002E401D101C201C101000000002D01AB82
:10194E00008901A00104011E01404040002020003A
:00000001FF
